:100000000C9462000C948A000C948A000C948A0070
:100010000C948A000C948A000C948A000C948A0038
:100020000C948A000C948A000C948A000C948A0028
:100030000C948A000C948A000C948A000C948A0018
:100040000C94E6070C948A000C947E050C94B2057F
:100050000C948A000C948A000C948A000C948A00F8
:100060000C948A000C948A000000000024002700F1
:100070002A0000000000250028002B0000000000DE
:1000800023002600290004040404040404040202DA
:100090000202020203030303030301020408102007
:1000A0004080010204081020010204081020000012
:1000B0000007000201000003040600000000000029
:1000C0000000290711241FBECFEFD8E0DEBFCDBF4F
:1000D00011E0A0E0B1E0E6E9F6E102C005900D9282
:1000E000A43CB107D9F712E0A4ECB1E001C01D9225
:1000F000A339B107E1F710E0C4ECD0E004C02297C7
:10010000FE010E94450BC23CD107C9F70E94E004E2
:100110000C94490B0C940000CF93DF93BC01823008
:10012000910510F462E070E0A0919102B09192020A
:10013000ED01E0E0F0E040E050E021C088819981ED
:100140008617970769F48A819B81309719F093830A
:10015000828304C09093920280939102FE0134C086
:100160006817790738F44115510519F08417950778
:1001700008F4AC01FE018A819B819C01E901209772
:10018000E9F641155105A9F1CA01861B970B0497A1
:1001900008F4BA01E0E0F0E02AC08D919C9111973B
:1001A00084179507F9F46417750781F412968D91F9
:1001B0009C911397309719F09383828304C0909396
:1001C000920280939102FD0132964CC0CA01861BB7
:1001D000970BFD01E80FF91F6193719302978D93BF
:1001E0009C9340C0FD01828193819C01D9011097AD
:1001F000A1F680918F0290919002892B41F4809119
:100200000B0190910C019093900280938F0240918A
:100210000D0150910E014115510541F44DB75EB7E6
:100220008091090190910A01481B590B20918F027E
:1002300030919002CA01821B930B8617970780F0BA
:10024000AB014E5F5F4F8417950750F0420F531F6D
:100250005093900240938F02F9016193719302C011
:10026000E0E0F0E0CF01DF91CF910895CF93DF93ED
:10027000009709F450C0EC0122971B821A82A091CA
:100280009102B0919202109709F140E050E0AC1752
:10029000BD0708F1BB83AA83FE0121913191E20FD2
:1002A000F31FAE17BF0779F48D919C911197280F1A
:1002B000391F2E5F3F4F3983288312968D919C9171
:1002C00013979B838A834115510571F4D093920251
:1002D000C093910220C012968D919C911397AD010D
:1002E000009711F0DC01D3CFFA01D383C2832191AF
:1002F0003191E20FF31FCE17DF0769F488819981EE
:10030000280F391F2E5F3F4FFA01318320838A81E6
:100310009B8193838283DF91CF9108956F927F9227
:100320008F929F92AF92BF92CF92DF92EF92FF9205
:100330000F931F93CF93DF93EA012CE3E22EF12C6E
:10034000012D112DA80197010E940D0B6883CA0190
:10035000B901A80197010E940D0B6983CA01B90177
:1003600028E130E040E050E00E940D0B59016A01A5
:100370006A83CA01B9016C5F7F4F8F4F9F4F27E09F
:1003800030E040E050E00E940D0B6F5F6B83EE2485
:10039000FF24870140E0E4E6F0E090E9892E91E057
:1003A000992E01C04F5F242F30E02E54384F83E048
:1003B000682E712C622273226114710461F4C901E8
:1003C000BF010E94FA0A009759F4C901B4010E94C2
:1003D000FA0A009729F08DE691E0A0E0B0E004C0B1
:1003E0008EE691E0A0E0B0E0E80EF91E0A1F1B1FA8
:1003F000C701A0E0B0E0A816B906CA06DB0690F671
:100400004E836114710471F4C90164E670E00E94C6
:10041000FA0A009761F4C90160E971E00E94FA0AE2
:10042000009729F08DE691E0A0E0B0E004C08EE6F0
:1004300091E0A0E0B0E0E81AF90A0A0B1B0BD60124
:10044000C5018E199F09A00BB10B7C018D01C9015B
:1004500064E670E00E94FA0A6C01C90160E971E08B
:100460000E94FA0AEDE8F1E060E0613049F46114BD
:10047000710441F4C114D10439F4009729F002C089
:10048000208103C02CE101C02DE130E040E050E0CC
:10049000E216F3060407150740F0E21AF30A040B0C
:1004A000150B6F5F31966C3001F76F5F6D83E394CE
:1004B000EC82DF91CF911F910F91FF90EF90DF9031
:1004C000CF90BF90AF909F908F907F906F90089546
:1004D000EF92FF920F931F937B018C018091DB01C0
:1004E0009091DC01A091DD01B091DE01E816F906E2
:1004F0000A071B0771F0C801B70140ED51E00E94E7
:100500008E01E092DB01F092DC010093DD0110939B
:10051000DE011F910F91FF90EF9008959B01AC01B8
:100520006093C6017093C7018093C8019093C9017D
:1005300080910F0190911001A0911101B0911201D1
:10054000820F931FA41FB51F8093CA019093CB0104
:10055000A093CC01B093CD0182E090E09093CF01C5
:100560008093CE010E942E086093D7017093D8012A
:100570008093D9019093DA010895EF92FF920F933F
:100580001F931AC02F5F3F4F4F4F5F4F2093C601FD
:100590003093C7014093C8015093C901D801C701E6
:1005A00088519C4FAF4FBF4F8093D7019093D80194
:1005B000A093D901B093DA010E942E08E090D701F0
:1005C000F090D8010091D9011091DA016E197F09DC
:1005D000800B910B2091C6013091C7014091C80159
:1005E0005091C901683EE3E07E07E0E08E07E0E05D
:1005F0009E0740F68091CA019091CB01A091CC0159
:10060000B091CD01281739074A075B07F0F0E09158
:10061000C401F091C5013097C1F0099561157105CC
:100620008105910519F00E948E020FC081E090E0D3
:100630002091CE013091CF012115310511F480E0D8
:1006400090E09093CF018093CE016091C6017091AC
:10065000C7018091C8019091C9011F910F91FF902E
:10066000EF9008950E94BD020E9468028091D0011F
:1006700090E008950E94BD020E9468028091D1011D
:1006800090E008950E94BD020E9468028091D2010C
:1006900090E008958091CE019091CF010895FC01E2
:1006A0008DE991E09183808308950E944203AA27F7
:1006B00097FDA095BA2FBC01CD010E94E9090E94C7
:1006C000D80A9B01AC010E9452090E94B609CB01D5
:1006D00008950E943A03AA2797FDA095BA2FBC015E
:1006E000CD010E94E9090E94D80A9B01AC010E9439
:1006F00052090E94B609CB010895CF93DF93EC0114
:100700000E94320322E385339207B1F022E386335D
:1007100092073CF48033910561F085539143B1F425
:1007200008C023E38033920751F08553944371F45A
:1007300009C081E090E008C082E090E005C087E059
:1007400090E002C089E190E09B838A830E9432039B
:10075000FC01EE0FFF1FED5EFE4F80819181DF9166
:10076000CF910895CF93DF93EC012E813F818C814F
:100770009D818217930764F08885998568EC70E005
:100780000E94FA0A892B21F42F5F3F4F3F832E836B
:100790002E813F818C819D812817390764F08885DF
:1007A000998568EC70E00E94FA0A892B21F42150A7
:1007B00030403F832E8388859985885E934014F06E
:1007C00019861886888599850196998788870E9459
:1007D000320380FD03C080E090E002C088E290E038
:1007E0009D838C83DF91CF910895EF92FF920F93B9
:1007F0001F938C017B010E94B203F801468157814F
:10080000C70160E070E00E947305C8010E947D038B
:10081000AC01C70161E070E00E947305C8010E944D
:100820006903AC01C70162E070E00E947305C80172
:100830000E945503AC01C70163E070E00E9473059C
:10084000C8010E947D03AC01C70164E070E00E9412
:1008500073051F910F91FF90EF900895FC018DE9B2
:1008600091E091838083CF010E94E30708950F9365
:100870001F938C018DE991E0F8019183808360ECF6
:1008800073EE8DE39BE40E948E02F80115821482C0
:10089000178216821F910F910895DF92EF92FF92B7
:1008A0000F931F93CF93DF937CC087E692E00E9463
:1008B000B206182F87E692E0612F0E94A307143535
:1008C00061F5EE24FF248701C0E0D0E087E692E0E6
:1008D0000E94B206D82E80538A30B8F4C801B701FE
:1008E0002AE030E040E050E00E94DB0A2D2D332763
:1008F00027FD30952053304079010027F7FC009503
:10090000102FE60EF71E081F191F2196CA30D105B9
:10091000E9F6C801B7010E948E0287E692E00E94C4
:10092000B2068032D1F3833571F5C0E0D0E087E6BE
:1009300092E00E94B206182F87E692E0612F0E9493
:10094000CB07812F80538A30D0F480918B01909116
:100950008C019C0153E0220F331F5A95E1F7880F59
:10096000991F280F391F20533040812F992787FD69
:100970009095280F391F30938C0120938B0121967D
:10098000C330D105A1F6E0916702F09168020280C0
:10099000F381E02D87E692E060E071E048E050E00E
:1009A000099587E692E00E94810640970CF07DCF82
:1009B000DF91CF911F910F91FF90EF90DF900895FD
:1009C0006F927F928F929F92AF92BF92DF92EF923F
:1009D000FF920F931F93DF93CF93CDB7DEB7A2970C
:1009E0000FB6F894DEBF0FBECDBF0E943C0887E66D
:1009F00092E040E855E260E070E00E94FB0560ECA8
:100A000073EE8DE39BE40E948E02CE010B960E9452
:100A100050058E010F5F1F4FC8010E943704F5EA91
:100A20006F2EF1E07F2EE9E18E2E912C8C0E9D1E13
:100A30007DE0A72EB12CAC0EBD1E67E1E62EF12C99
:100A4000EC0EFD1ED02E012F87E692E00E9481065B
:100A5000892B11F00E944D040E944A03892BA1F3B7
:100A6000788E6F8AD401F5018AE001900D92815051
:100A7000E1F78D2D902FB7010E94F503C7010E9469
:100A80004205E2CF25EA31E0FC013183208308955D
:100A900025EA31E0FC01318320830E94E3070895B9
:100AA0000F931F93CF93DF93FC0125EA31E021934D
:100AB0003193A9EAB1E02AE00D9001922150E1F7CB
:100AC0008C010E5F1F4FC5E0D0E0F80180810E5F02
:100AD0001F4F61E00E94D7082197B9F7DF91CF91AE
:100AE0001F910F910895FB01BA013196EE0FFF1F80
:100AF000E80FF91F80810E94770808951F920F92D6
:100B00000FB60F9211242F933F934F938F939F9380
:100B1000EF93FF934091C60020911F023091200275
:100B20002F5F3F4F2F7330708091210290912202EE
:100B30002817390759F0E0911F02F0912002E15285
:100B4000FE4F40833093200220931F02FF91EF91CC
:100B50009F918F914F913F912F910F900FBE0F90CA
:100B60001F9018951F920F920FB60F9211242F937A
:100B70003F934F935F936F937F938F939F93AF9325
:100B8000BF93EF93FF9320916302309164028091B1
:100B90006502909166022817390731F48091C100EF
:100BA0008F7D8093C10016C0E0916502F0916602CE
:100BB000ED5DFD4F40818091650290916602019646
:100BC00060E470E00E94FA0A9093660280936502E6
:100BD0004093C600FF91EF91BF91AF919F918F918C
:100BE0007F916F915F914F913F912F910F900FBE29
:100BF0000F901F901895AF92BF92DF92EF92FF92E5
:100C00000F931F93CF93DF93EC017A018B01DD24C7
:100C1000403081EE580780E0680780E0780711F0E7
:100C2000DD24D39491E0A92EB12CEC89FD89DD203F
:100C300069F0C5010E8C02C0880F991F0A94E2F773
:100C4000808360E079E08DE390E005C0108260E889
:100C500074E88EE190E0A80197010E940D0B2150ED
:100C6000304040405040569547953795279580E154
:100C70002030380720F0DD2011F0DD24D6CFE889C0
:100C8000F9893083EA89FB892083EE89FF894081D5
:100C900021E030E0C9010A8C02C0880F991F0A9434
:100CA000E2F7482B4083EE89FF894081C9010B8C14
:100CB00002C0880F991F0A94E2F7482B4083EE89FF
:100CC000FF894081C9010C8C02C0880F991F0A94CA
:100CD000E2F7482B4083EE89FF8980810D8C02C0AA
:100CE000220F331F0A94E2F7209528232083DF91F7
:100CF000CF911F910F91FF90EF90DF90BF90AF9039
:100D00000895DC011C96ED91FC911D97E05CFF4F6E
:100D10002191319180819181281B390B2F73307083
:100D2000C9010895DC011C96ED91FC911D97E05CD2
:100D3000FF4F20813181E054F040DF01AE5BBF4FB7
:100D40008D919C9111972817390719F42FEF3FEFD8
:100D500007C08D919C91E80FF91F8081282F30E00A
:100D6000C9010895DC011C96ED91FC911D97E05C92
:100D7000FF4F20813181E054F040DF01AE5BBF4F77
:100D80008D919C9111972817390719F42FEF3FEF98
:100D900010C08D919C911197E80FF91F20818D91C2
:100DA0009C91119701968F73907011969C938E93DE
:100DB00030E0C9010895FC0186859785DC01A05CBF
:100DC000BF4FFC01EE5BFF4F2D913C91119780814D
:100DD000918128173907C1F70895CF93DF93EC016C
:100DE000462FEE85FF85E05CFF4F80819181E054C6
:100DF000F040019660E470E00E94FA0A9C01DF0175
:100E0000AE5BBF4F8D919C91119728173907D1F395
:100E1000E05CFF4F80819181E054F040E80FF91FC2
:100E20004083EE85FF85E05CFF4F31832083EE89B0
:100E3000FF89208181E090E00D8C02C0880F991F0E
:100E40000A94E2F7282B208381E090E0DF91CF9194
:100E5000089510926A021092690288EE93E0A0E071
:100E6000B0E080936B0290936C02A0936D02B093FC
:100E70006E0287EB91E090936802809367028FED9A
:100E800091E0909374028093730283E292E09093D6
:100E900076028093750285EC90E0909378028093BF
:100EA000770284EC90E090937A028093790280EC50
:100EB00090E090937C0280937B0281EC90E0909391
:100EC0007E0280937D0286EC90E090938002809376
:100ED0007F0284E08093810283E08093820287E036
:100EE0008093830285E08093840281E08093850271
:100EF0000895CF92DF92EF92FF920F931F93CF93BB
:100F0000DF937C016B018A01C0E0D0E00FC0D60105
:100F10006D916D01D701ED91FC910190F081E02D73
:100F2000C7010995C80FD91F0150104001151105BF
:100F300071F7CE01DF91CF911F910F91FF90EF904C
:100F4000DF90CF900895DC01ED91FC910190F0814C
:100F5000E02D09950895EF92FF920F931F938C0156
:100F6000DC01ED91FC910190F081E02D6DE009959F
:100F70007C01D801ED91FC910190F081E02DC80138
:100F80006AE009959C012E0D3F1DC9011F910F912B
:100F9000FF90EF900895EF92FF920F931F937C01C3
:100FA000DC01ED91FC910190F081E02D09958C011F
:100FB000C7010E94AB07080F191FC8011F910F91AD
:100FC000FF90EF9008950E94360108951F920F92AE
:100FD0000FB60F9211242F933F938F939F93AF934C
:100FE000BF9380918A0290918B02A0918C02B09164
:100FF0008D0230918E020196A11DB11D232F2D5F10
:101000002D3720F02D570196A11DB11D20938E0282
:1010100080938A0290938B02A0938C02B0938D02EE
:101020008091860290918702A0918802B0918902F6
:101030000196A11DB11D8093860290938702A09313
:101040008802B0938902BF91AF919F918F913F9198
:101050002F910F900FBE0F901F9018958FB7F89497
:1010600020918A0230918B0240918C0250918D0226
:101070008FBFB901CA010895789484B5826084BD98
:1010800084B5816084BD85B5826085BD85B581608C
:1010900085BDEEE6F0E0808181608083E1E8F0E0EC
:1010A0001082808182608083808181608083E0E81B
:1010B000F0E0808181608083E1EBF0E080818460FA
:1010C0008083E0EBF0E0808181608083EAE7F0E0FC
:1010D0008081846080838081826080838081816060
:1010E00080838081806880831092C10008951F935F
:1010F000CF93DF93182FEB0161E00E94D708209770
:1011000009F44AC0CF3FD10509F449C0E12FF0E00E
:10111000E255FF4F84918330C1F0843028F4813050
:1011200051F08230B1F50CC0863019F1873049F1A9
:10113000843079F514C084B5806884BDC7BD33C0E0
:1011400084B5806284BDC8BD2EC080918000806857
:1011500080938000D0938900C093880024C0809140
:101160008000806280938000D0938B00C0938A00BF
:101170001AC08091B00080688093B000C093B30023
:1011800012C08091B00080628093B000C093B40020
:101190000AC0C038D1051CF4812F60E002C0812F45
:1011A00061E00E94FD08DF91CF911F910895482FC3
:1011B00050E0CA0186569F4FFC0124914A575F4F69
:1011C000FA0184918823C1F0E82FF0E0EE0FFF1FB1
:1011D000E859FF4FA591B491662341F49FB7F89465
:1011E0008C91209582238C939FBF08959FB7F8948C
:1011F0008C91822B8C939FBF0895482F50E0CA0199
:1012000082559F4FFC012491CA0186569F4FFC01D5
:1012100094914A575F4FFA013491332309F440C047
:10122000222351F1233071F0243028F42130A1F031
:10123000223011F514C02630B1F02730C1F024302F
:10124000D9F404C0809180008F7703C08091800022
:101250008F7D8093800010C084B58F7702C084B5E5
:101260008F7D84BD09C08091B0008F7703C08091CD
:10127000B0008F7D8093B000E32FF0E0EE0FFF1FF2
:10128000EE58FF4FA591B4912FB7F894662321F43F
:101290008C919095892302C08C91892B8C932FBFC0
:1012A00008955058BB27AA270ED0E5C0D6D030F0FD
:1012B000DBD020F031F49F3F11F41EF4CBC00EF4CC
:1012C000E095E7FBC1C0E92FE7D080F3BA176207CA
:1012D00073078407950718F071F49EF5FFC00EF4AC
:1012E000E0950B2EBA2FA02D0B01B90190010C0136
:1012F000CA01A0011124FF27591B99F0593F50F44E
:10130000503E68F11A16F040A22F232F342F4427A5
:10131000585FF3CF469537952795A795F04053959D
:10132000C9F77EF41F16BA0B620B730B840BBAF06D
:101330009150A1F0FF0FBB1F661F771F881FC2F7D8
:101340000EC0BA0F621F731F841F48F487957795EC
:101350006795B795F7959E3F08F0B3CF9395880FA3
:1013600008F09927EE0F97958795089504D0689413
:10137000B111B5C0089598D088F09F5790F0B92F5B
:101380009927B751A0F0D1F0660F771F881F991FDA
:101390001AF0BA95C9F712C0B13081F09FD0B1E010
:1013A00008959CC0672F782F8827B85F39F0B93F20
:1013B000CCF3869577956795B395D9F73EF49095DC
:1013C0008095709561957F4F8F4F9F4F0895E8945A
:1013D00009C097FB3EF490958095709561957F4F7D
:1013E0008F4F9F4F9923A9F0F92F96E9BB2793952B
:1013F000F695879577956795B795F111F8CFFAF43B
:10140000BB0F11F460FF1BC06F5F7F4F8F4F9F4F6B
:1014100016C0882311F096E911C0772321F09EE8C9
:10142000872F762F05C0662371F096E8862F70E02F
:1014300060E02AF09A95660F771F881FDAF7880F09
:101440009695879597F9089597F99F6780E870E0DA
:1014500060E008959FEF80EC089500240A9416162A
:10146000170618060906089500240A941216130692
:10147000140605060895092E0394000C11F4882320
:1014800052F0BB0F40F4BF2B11F460FF04C06F5F3C
:101490007F4F8F4F9F4F089557FD9058440F551F12
:1014A00059F05F3F71F04795880F97FB991F61F0E6
:1014B0009F3F79F087950895121613061406551F5D
:1014C000F2CF4695F1DF08C0161617061806991FC9
:1014D000F1CF86957105610508940895E894BB27BE
:1014E00066277727CB0197F908950BD0C4CFB5DFD6
:1014F00028F0BADF18F0952309F0A6CFABCF11245E
:10150000EECFCADFA0F3959FD1F3950F50E0551FA2
:10151000629FF001729FBB27F00DB11D639FAA2748
:10152000F00DB11DAA1F649F6627B00DA11D661F97
:10153000829F2227B00DA11D621F739FB00DA11DB8
:10154000621F839FA00D611D221F749F3327A00D72
:10155000611D231F849F600D211D822F762F6A2F0E
:1015600011249F5750408AF0E1F088234AF0EE0F93
:10157000FF1FBB1F661F771F881F91505040A9F7A0
:101580009E3F510570F060CFAACF5F3FECF3983ECD
:10159000DCF3869577956795B795F795E7959F5F07
:1015A000C1F7FE2B880F911D9695879597F90895A1
:1015B0009B01AC019ACF629FD001739FF001829F83
:1015C000E00DF11D649FE00DF11D929FF00D839FD2
:1015D000F00D749FF00D659FF00D9927729FB00D6F
:1015E000E11DF91F639FB00DE11DF91FBD01CF0182
:1015F0001124089597FB092E07260AD077FD04D001
:101600002ED006D000201AF4709561957F4F089572
:10161000F6F7909581959F4F0895A1E21A2EAA1B87
:10162000BB1BFD010DC0AA1FBB1FEE1FFF1FA21792
:10163000B307E407F50720F0A21BB30BE40BF50B8F
:10164000661F771F881F991F1A9469F76095709518
:10165000809590959B01AC01BD01CF010895AA1B17
:10166000BB1B51E107C0AA1FBB1FA617B70710F08D
:10167000A61BB70B881F991F5A95A9F780959095BF
:10168000BC01CD010895EE0FFF1F0590F491E02DF0
:061690000994F894FFCF5D
:1016960054696D6520736574002000930200002C68
:1016A6000100000100020003000400050006000717
:1016B60000080009000A000B000C000D000E000FC8
:1016C6000010001100120013001400150016001778
:1016D60000180019001A001B001C001D001E001F28
:1016E60000200021002200230024002500260027D8
:1016F60000280029002A002C002E00300032003479
:1017060000360038003C00410046004B00500055B2
:10171600005A005F00640069006E001E001F1C1F57
:101726001E1F1E1F1F1E1F1E1F000000004F032E20
:1017360004000000004205480503000500060009F4
:10174600000A0000000000ED0679078106B2069245
:0417560006DB0600A8
:00000001FF
